:020000040000FA
:10000000280E006E340E016E7A0E026E800E036EA4
:10001000A70E046ED10E056EFE0E066EFE0E076E66
:10002000000E206E060E216E2024FE0B226E224250
:10003000225000EE00F0EB50076223EF00F0FF0EBD
:10004000116E48EF00F0076435EF00F022C020F099
:10005000202A2050216444EF00F02124FE0B226E60
:1000600022422250EB501CEF00F022C021F021066A
:100070002150206044EF00F02024FE0B226E22422B
:100080002250EB501CEF00F0000E116E48EF00F014
:0200900000006E
:0200920000006C
:020000040030CA
:0100010008F6
:010003001EDE
:00000001FF
