:020000040000FA
:0400000007EF00F016
:0A000800148280ED03F0DBEF03F03B
:100600000000020406080A0C0E01030507090B0D81
:100610000F00D3508F0B4009D36E9280936A8A6A81
:10062000C198C19AC150F00B0E09C16EC30EC2161B
:10063000F80EC016C050C70B0809C06EC280C09E1D
:100640009D8C9E9CF28CF28EC282C3CF0DF0060E62
:100650000E6ED8900D320E2E29EF03F00D50C4CF40
:100660000FF0106AD8900F361036D8900F3610362B
:100670000F10036E1050046E03C00DF004C00EF096
:10068000070E0F6ED8900E320D320F2E42EF03F090
:100690000DC007F00EC008F003C001F004C002F066
:1006A000136A0750090F0D6E0DC0F6FF0800F5CF55
:1006B0008AFF0750090F0D6E0DC0F6FF0800F550B8
:1006C000056E066A1350D8A468EF03F06AEF03F0D2
:1006D00074EF03F00750090F0D6E0DC0F6FF080010
:1006E000F5CF8AFF62EF03F00750010F0D6E0DC0CA
:1006F000F6FF0800F5CF8AFF62EF03F007EF00F086
:100700000600C3CF09F0060E0A6ED89009320A2EF1
:1007100085EF03F00950C4CF0BF00C6AD8900B366C
:100720000C36D8900B360C360B10036E0C50046E42
:1007300011500124096E125002200A6E0350095C08
:1007400004500A58D8B0A7EF03F0A9EF03F0B0EFB8
:1007500003F0136A03C001F004C002F0C7EF03F016
:100760001150015C096E125002580A6E0950035C68
:100770000A500458D8B0BFEF03F0C1EF03F0C7EF41
:1007800003F0010E136E03C001F004C002F003C0B9
:1007900009F004C00AF0070E0B6ED8900A32093235
:1007A0000B2ECDEF03F009C007F00AC008F09E9CA5
:1007B000C28214921100E20EF66E070EF76E000E62
:1007C000F86E0900F5CF11F00900F5CF12F0136AA9
:1007D00014901492000EF86E060EF76E000109EFE9
:0407E00003F00A0018
:020000040020DA
:08000000FFFFFFFFFFFFFFFF00
:020000040030CA
:0E000000FF081B1EFF8181FF0FC00FE00F40A5
:00000001FF
